:020000040800F2
:1000000000100020C50100088901000893010008C4
:1000100000000000000000000000000000000000E0
:10002000000000000000000000000000990100082E
:100030000000000000000000A3010008AD0100085E
:100040001502000815020008150200081502000834
:100050001502000815020008150200081502000824
:100060000000000015020008150200081502000833
:100070001502000815020008150200081502000804
:100080001502000800000000000000001502000832
:100090000000000015020008150200081502000803
:1000A0000000000015020008000000001502000812
:1000B0000000000000000000000000000000000040
:1000C00010B5064C2378002B07D1054B002B02D02E
:1000D000044800E000BF0123237010BD0800002089
:1000E0000000000084020008044B10B5002B03D070
:1000F0000349044800E000BF10BDC04600000000F6
:100100000C0000208402000880B582B000AF184BBC
:100110001A68174B04210A431A60164B1A68154BCC
:1001200015490A401A60134B1968124B802292023B
:100130000A401A60114B1B681A88802189010A4302
:100140001A8002E07B6801337B607B680C4A934233
:10015000F8DD0A4B1B681A880A490A401A8002E037
:100160003B6801333B603B68054A9342F8DDE1E7B9
:100170001810024004080140FFFFF0FF00000020BB
:1001800087130000FFDFFFFF80B500AFC046BD460C
:1001900080BD80B500AFFEE780B500AFC046BD466C
:1001A00080BD80B500AFC046BD4680BD80B500AF04
:1001B00000F032F8C046BD4680BD80B500AFC046F5
:1001C000BD4680BD0D4885460D480E490E4A0023A8
:1001D00002E0D458C4500433C4188C42F9D30B4AFB
:1001E0000B4C002301E013600432A242FBD3FFF763
:1001F000E4FF00F023F8FFF787FFFEE70010002080
:100200000000002008000020A402000808000020D0
:1002100028000020FEE7000080B500AF054B1B78EA
:100220001A00054B1B68D218034B1A60C046BD4626
:1002300080BDC046040000202400002070B50026C8
:100240000C4D0D4C641BA410A64209D1002600F0F1
:1002500019F80A4D0A4C641BA410A64205D170BDC2
:10026000B300EB5898470136EEE7B300EB589847D8
:100270000136F2E79C0200089C0200089C0200087C
:10028000A0020008F8B5C046F8BC08BC9E467047FE
:0C029000F8B5C046F8BC08BC9E4670479C
:04029C00E90000086D
:0402A000C100000891
:0802A4000C08014001000000FC
:04000005080001C529
:00000001FF
